:100000008A11112800000800FE00030EF000040809
:10001000F1000A08F200831203137F08F3008A1527
:10002000A4298A11132883134A3084006B308A1163
:10003000F7278A11A0308400CA308A11F72783017C
:100040008A11FD2C83120313AB00A030A9002908EC
:10005000A5001430AA002A08A6002B088A15E92456
:100060008A11003A03194C298312031328088400CB
:1000700083160313210883138000840A200880005C
:1000800083120313280884000008F400840A00087F
:10009000F5008A15BC218A11831203132808023E39
:1000A000840083160313230883138000840A220824
:1000B0008000831203132808023E84000008F40025
:1000C000840A0008F5008A15BC218A1183120313E3
:1000D0002808043E84008316031325088313800038
:1000E000840A24088000831203132808043E840035
:1000F0000008F400840A0008F5008A15BC218A1162
:10010000831203132808063E84008316031327086E
:1001100083138000840A26088000831203132808B2
:10012000063E84000008F400840A0008F5008A15E1
:10013000BC218A11831203132808083E8400831609
:100140000313290883138000840A2808800083127F
:1001500003132808083E84000008F400840A0008FD
:10016000F5008A15BC218A118312031328080A3E60
:100170008400831603132B0883138000840A2A0843
:1001800080008312031328080A3E84000008F4004C
:10019000840A0008F5008A15BC218A118312031312
:1001A00028080C3E8400831603132D088313800057
:1001B000840A2C0880008312031328080C3E840054
:1001C0000008F400840A0008F5008A15BC218A1191
:1001D0008312031328080E3E8400831603132F088E
:1001E00083138000840A2E088000831203132808DA
:1001F0000E3E84000008F400840A0008F5008A1509
:10020000BC218A11831203132808103E8400831630
:100210000313310883138000840A3008800083129E
:1002200003132808103E84000008F400840A000824
:10023000F5008A15BC218A11831203132808123E87
:10024000840083160313330883138000840A320862
:100250008000831203132808123E84000008F40073
:10026000840A0008F5008A15BC218A118312031341
:10027000AC0116302C0203184A292C08A03E840039
:10028000831380010130A9002908AC0716302C0225
:10029000031C3D29003008000130080083120313BD
:1002A000A000A301A1013D2A8316031306168A1597
:1002B0008E218A1183120313A4010830240203182B
:1002C000822906138A158E218A11831203130617B9
:1002D0000310A30D01308A157D238A11F8007808D8
:1002E00083120313A200220803197A290130F800AF
:1002F0007808A3070130F8007808A4070830240222
:10030000031C6129F708031D8A2901308A151E275D
:100310008A11362A0130332A8316031387148A156B
:100320008E218A1183120313A401083024020318BA
:10033000BA2907118A158E218A1183120313071512
:100340000310A30D02308A157D238A11F800780866
:1003500083120313A20022080319B2290130F80006
:100360007808A3070130F8007808A40708302402B1
:10037000031C9929F708031DC22902308A151E277C
:100380008A11362A0230332A8316031307168A1578
:100390008E218A1183120313A4010830240203184A
:1003A000F22987128A158E218A1183120313871668
:1003B0000310A30D03308A157D238A11F8007808F5
:1003C00083120313A20022080319EA290130F8005E
:1003D0007808A3070130F8007808A4070830240241
:1003E000031CD129F708031DFA2903308A151E279B
:1003F0008A11362A0330332A8316031305168A1509
:100400008E218A1183120313A401083024020318D9
:100410002A2A85128A158E218A11831203138516C2
:100420000310A30D04308A157D238A11F800780883
:1004300083120313A20022080319222A0130F800B4
:100440007808A3070130F8007808A40708302402D0
:10045000031C092AF708031D322A04308A151E27B7
:100460008A11362A04308A15AD268A1183120313A5
:100470002308F8007808A1004B2A2008013A031944
:100480005429033A03198C29013A0319C429073A5C
:100490000319FC294B2A21080800F6000F2B8316AC
:1004A000031306128312031306138A158E218A1171
:1004B000F70108307702031808007408F5000730C8
:1004C0000310F50CFF3E031D602A751C6B2A831276
:1004D000031306166E2A8312031306120310F40D7B
:1004E00006178A158E218A118312031306138A15A3
:1004F0008E218A110130F5007508F707592A8316F5
:10050000031387108312031307118A158E218A1192
:10051000F70108307702031808007408F500073067
:100520000310F50CFF3E031D902A751C9B2A8312B5
:10053000031387149E2A8312031387100310F40DEC
:1005400007158A158E218A118312031307118A1544
:100550008E218A110130F5007508F707892A831664
:10056000031307128312031387128A158E218A112F
:10057000F70108307702031808007408F500073007
:100580000310F50CFF3E031DC02A751CCB2A8312F5
:1005900003130716CE2A8312031307120310F40D58
:1005A00087168A158E218A118312031387128A15E2
:1005B0008E218A110130F5007508F707B92A8316D4
:1005C000031305128312031385128A158E218A11D3
:1005D000F70108307702031808007408F5000730A7
:1005E0000310F50CFF3E031DF02A751CFB2A831235
:1005F00003130516FE2A8312031305120310F40DCC
:1006000085168A158E218A118312031385128A1585
:100610008E218A110130F5007508F707E92A76085E
:10062000013A03194F2A033A03197F2A013A0319A1
:10063000AF2A073A0319DF2A1D2B08008312031380
:10064000A000A201A1012008013A031D4C2B831632
:10065000031306168312031306178A158E218A11B7
:1006600001308A157D238A11F7007708831203135E
:10067000A200A2080319492B0130F7007708A1074F
:10068000FB302102031C2D2B01308A158F270130EE
:1006900008000613003008002008023A031D752BDD
:1006A0008316031387148312031307158A158E21EB
:1006B0008A1102308A157D238A11F7007708831288
:1006C0000313A200A2080319722B0130F700770868
:1006D000A107FB302102031C562B02308A158F27FD
:1006E000013008000711003008002008033A031DFC
:1006F0009E2B8316031307168312031387168A157E
:100700008E218A1103308A157D238A11F70077081C
:1007100083120313A200A20803199B2B0130F700D8
:100720007708A107FB302102031C7F2B03308A15B9
:100730008F27013008008712003008002008043A93
:10074000031DC72B83160313051683120313851687
:100750008A158E218A1104308A157D238A11F700AB
:10076000770883120313A200A2080319C42B0130D7
:10077000F7007708A107FB302102031CA82B0430E7
:100780008A158F27013008008512003008000030DC
:1007900008008A15AF218A11803083120313A90043
:1007A0002908F8006B308A159F228A116430F40002
:1007B0000030F5008A15BB228A11F8016B308A15CA
:1007C0009F228A1103308A15F5218A1103308A1578
:1007D000CD218A11323083120313A4000030A5000A
:1007E0008A15A4248A11F80138308A159F228A11AB
:1007F000F8016A308A159F228A11F80123308A1580
:100800009F228A11823083120313A9002908F8005D
:1008100037308A159F228A112A3083120313A900C8
:100820002908A000A101A10A75308A11A0278A1108
:10083000831203132A08713A031D332CF801F80AB6
:100840006B308A159F228A11F8016C308A159F221D
:100850008A11323083120313A4000030A5008A15D8
:10086000A4248A11352C013008002B308312031385
:10087000A9002908A000A101A10A00308A1583253A
:100880008A11831203132B08483A031D5F2CF801C9
:10089000F80A0B308A1583228A116430F400003084
:1008A000F5008A15BB228A11113083120313A900A7
:1008B0002908F8000A308A1583228A11612C013038
:1008C000080000300800831203136A08C501C50739
:1008D0006908C401C407C201C3018A15EA238A1149
:1008E00083120313C601C60AC601C60A05304602B2
:1008F0000318EF2C0530A3003030A4000630A5000B
:100900000030A6000430BE003E08A70046088A1545
:10091000DA258A114630F4000030F5008A15BB2232
:100920008A11013083120313A3003030A400063073
:10093000A5000030A6000430BE003E08A70046080F
:100940008A15DA258A110130F4000030F5008A1585
:10095000BB228A11E03083120313A5002430A600C5
:100960004430BE003E08A7000230BF003F08A80088
:1009700046088A111E268A11831203134508BE00F9
:10098000BF014408C000C1014008C100C0013E08C9
:100990004004C2003F084104C30007304306031D62
:1009A000D32C0B3042060319E52C22308A150A227B
:1009B0008A11831203134608303E8A1590218A114A
:1009C0002E308A150A2201300800013083120313E9
:1009D000BE003E08C60705304602031C7A2C0030D4
:1009E000B3000530B4008A1125278A11003A031993
:1009F000FB2C013008000030080083120313C801EB
:100A0000C80AC901C90A7030831603138F040F1472
:100A10009001051095018312031795019E019F0116
:100A200099019A01831203139F0105108A15E12190
:100A30008A118A1163248A110038031D192D01308F
:100A40008A150A228A118A11C9238A110038031DC6
:100A5000232D15308A150A228A111430F400003033
:100A6000F5008A15BB228A1183120313C801C80A34
:100A70000830480203185D2DAA308A1590218A118A
:100A8000AA308A1590218A1199308A1590218A11ED
:100A90008A1194258A11DD308A1590218A11DD3062
:100AA0008A1590218A11013083120313C700470869
:100AB000C80708304802031C3C2DC901C90A05308B
:100AC00049020318342D49088A1530258A11003A45
:100AD00003198D2DAA308A1590218A11AA308A1502
:100AE00090218A118312031349088A1590218A11D3
:100AF000B63083120313C7004708A80049088A11BB
:100B000022208A110038031D782DDD308A159021AE
:100B10008A11DD308A1590218A1101308312031366
:100B2000C7004708C9075F2D2F308A15FA228A119E
:100B3000831203133008CB01CB072F08CA01CA0761
:100B40004B08F501F5074A08F401F4078A15BC21A2
:100B50008A11831203133208CD01CD073108CC016D
:100B6000CC074D08F501F5074C08F401F4078A1588
:100B7000BC218A11831203133408CF01CF07330835
:100B8000CE01CE074F08F501F5074E08F401F40732
:100B90008A15BC218A1135308A1523238A118312C4
:100BA00003133608D101D1073508D001D007510809
:100BB000F501F5075008F401F4078A15BC218A11E4
:100BC000831203133808D301D3073708D201D207A1
:100BD0005308F501F5075208F401F4078A15BC2102
:100BE0008A11831203133A08D501D5073908D401B5
:100BF000D4075508F501F5075408F401F4078A15E0
:100C0000BC218A110030F4000030F5008A15BC21A7
:100C10008A110030F4000030F5008A15BC218A11D9
:100C20000030F4000030F5008A15BC218A11003034
:100C3000F4000030F5008A15BC210800831203136C
:100C4000AD006208A9006308AA006408AB00763012
:100C5000F9007908A9002608F9007908AA002508F2
:100C6000F9007908AB002D088A11A8268A11831291
:100C70000313AC0103302C020318642E2C08293E08
:100C8000840083130008F9007908F4002D088A1104
:100C90004D228A11831203132D088A111E238A11F3
:100CA000003A03195A2E831203132D088A158F2731
:100CB000013008000130F900790883120313AC07F2
:100CC00003302C02031C3E2E2D088A11A8268A11FF
:100CD0007730F9007908F400831203132D088A1184
:100CE0004D228A11831203132D088A111E238A11A3
:100CF000003A03199E2E831203132D088A158F279D
:100D000001300800831203132808013A031D8A2EBC
:100D1000F7018C2EF701F70A2D088A114E218A114E
:100D2000F9008312031327088400790883138000D5
:100D30000130A8020130F9007908A70783120313D4
:100D4000A808031D822E2D088A158F270030080061
:100D5000F400162F831603130612831203130616CC
:100D60008A158E218A118312031306178A158E2184
:100D70008A118312031306128A158E218A11831297
:100D8000031306138A158E21080083160313871098
:100D90008312031387148A158E218A118312031379
:100DA00007158A158E218A118312031387108A155D
:100DB0008E218A118312031307118A158E210800D0
:100DC0008316031307128312031307168A158E2145
:100DD0008A118312031387168A158E218A118312B2
:100DE000031307128A158E218A11831203138712A7
:100DF0008A158E210800831603130512831203132C
:100E000005168A158E218A118312031385168A15F9
:100E10008E218A118312031305128A158E218A11DD
:100E20008312031385128A158E2108007408013A73
:100E30000319AA2E033A0319C52E013A0319E02E0D
:100E4000073A0319FB2E242F0800831203136808A6
:100E5000BC01BC076708BB01BB07B901BA01BD01F2
:100E6000BD0ABD01BD0A05303D0203189E2FE130C9
:100E7000AE002430AF000D303304B00080303404B5
:100E8000B1003D088A1542268A110130F400003075
:100E9000F5008A15BB228A11E23083120313AE00DB
:100EA0002430AF001D303304B00080303404B10072
:100EB0003D088A1542268A110130F4000030F50001
:100EC0008A15BB228A11E23083120313A500243055
:100ED000A6003B30B5003508A7000230B600360842
:100EE000A8003D088A111E268A11831203133C08AC
:100EF000B500B6013B08B700B8013708B800B70124
:100F000035083704B90036083804BA001D303304F8
:100F1000B50080303404B6003A083606031D922F1F
:100F2000390835060319962F013008000130B50045
:100F30003508BD0705303D02031C372F003008007F
:100F400083120313A4008A1568228A11D0308A15EF
:100F50004C238A118A15D8228A118312031324087C
:100F60008A154C238A118A15D8228A118A1568227B
:100F70008A11D1308A154C238A118A15D8228A11F8
:100F800083120313A5012108FF3EA200FF300318BE
:100F90000030A3002308803A803C031DD12F220893
:100FA00025020318E82F01308A15B2238A11831213
:100FB0000313A2002008840022088313800001305C
:100FC000A2002208A0070130A2002208A507C32F13
:100FD00000308A15B2238A1183120313A20020085D
:100FE00084002208831380008A15502208006400C0
:0E0FF0008001840A0406031900340406F82F59
:1010000008308A000408840A8207003457346834A0
:101010006F346C34653420344D344C3458343934A6
:10102000303436343334323420344F344B3421347A
:101030000A3400344D345034553439343234353474
:1010400030345F344F344B3421340A3400344D345F
:101050004C3458345F34533465346E3473346F34E5
:101060007234303400344534723472346F34723434
:0610700021340A340034B3
:10131C0000000800F40083160313981C912974082C
:10132C00831203139900080083120313871DA1294C
:10133C00F401F40AA229F401740808007308FF00F0
:10134C0072088A0071088400700E8300FE0E7E0EF7
:10135C00090083160313071383120313071783164D
:10136C0003138711831203138715080083160313C5
:10137C00981CBC2975088312031399008316031358
:10138C00981CC42974088312031399000800831253
:10139C000313A2002208A00002300310A00DFF3E90
:1013AC00031DD3290310200DA1002108F8001C30C7
:1013BC008A159F220800083083160313990098168B
:1013CC001815831203131816831203179F11831613
:1013DC0003138616861383120313981708008312BF
:1013EC000313A2002208A00002300310A00DFF3E40
:1013FC00031DFB290310200D0338A1002108F80060
:10140C001B308A159F220800F600760884008A1586
:10141C0000208A15003803190800760884008A1504
:10142C0000208A158A1590218A150130F50075085F
:10143C00F6070B2A83120313071383160313871162
:10144C008A1102208A158312031387118A11022034
:10145C008A158312031307178A11022083120313B0
:10146C000713080083120313071383160313871142
:10147C008A1102208A158312031387158A11022000
:10148C008A158312031307178A1102208312031380
:10149C000713080083160313871183120313071312
:1014AC008A1102208A158312031387118A110220D4
:1014BC008A158312031307178A1102208312031350
:1014CC0087150800831603138711831203138715DE
:1014DC008A1102208A158312031307178A1102201E
:1014EC008A158312031387118A1102208A1583121D
:1014FC00031307138A1102200800F9008A156822C9
:10150C008A1518308A154C238A158A15D8228A1503
:10151C0079088A154C238A158A15D8228A157808D9
:10152C008A154C238A158A15D8228A158A155022B9
:10153C000800F9008A1568228A15D0308A154C23C8
:10154C008A158A15D8228A1579088A154C238A158A
:10155C008A15D8228A1578088A154C238A158A157B
:10156C00D8228A158A1550220800750874040319AC
:10157C000800C330F6000030F7000130F6020030EE
:10158C00031CF703F702FF307706031DCF2AFF3049
:10159C007606031DC32A0130F4020030031CF50348
:1015AC00F502BB2AF7018316031387158312031365
:1015BC0007178A1102208A158A159A218A15F500B7
:1015CC007508F600F6080319F62A0130F5007508BF
:1015DC00F707FB307702031CDF2A8A15502208001C
:1015EC00831203130713080083120313AE00283071
:1015FC00A6002608A0000630A7002708A1003B3053
:10160C008A11A027831203132E0884002908831340
:10161C008000840A280880002E08023E84002B08D3
:10162C008000840A2A0880002E08043E84002D08BD
:10163C008000840A2C088000080083120313AE007B
:10164C002830A6002608A0000630A7002708A10015
:10165C0043308A11A027831203132E088400290813
:10166C0083138000840A280880002E08023E840020
:10167C002B088000840A2A0880002E08043E84006F
:10168C002D088000840A2C0880000800F5008316C1
:10169C00031387118312031307138A1102208A156F
:1016AC00F60108307602031808007508F4000730BC
:1016BC000310F40CFF3E031D5E2B741C692B83126C
:1016CC00031387156C2B8312031387110310F50D6D
:1016DC0007178A1102208A158312031307138A1124
:1016EC0002208A150130F4007408F607572BF40019
:1016FC009B2B003083120313061A0130F600A92B22
:10170C0000308312031387180130F600A92B003028
:10171C0083120313071A0130F600A92B0030831231
:10172C000313051A0130F600A92B7408013A0319AA
:10173C007F2B033A0319862B013A03198D2B073A99
:10174C000319942BA92B76080319AF2BF501F50A75
:10175C00B02BF50175080800F600F8018316031389
:10176C0087158A1102208A15F901083079020318AD
:10177C00DF2B8312031307138A1102208A1583129D
:10178C00031307170310F80D8A159A218A15F50013
:10179C007508F70077080319D72B0130F500750889
:1017AC00F8070130F5007508F90708307902031CB9
:1017BC00BF2BF608031DE62B8A1538228A15E82B59
:1017CC008A15202278080800831603130613831247
:1017DC00031306178316031306128312031306163C
:1017EC0083160313071183120313071583160313B0
:1017FC0087108312031387148316031307118312A4
:10180C00031307158316031387108312031387140E
:10181C00831603138712831203138716831603137D
:10182C0007128312031307168316031385128312F0
:10183C00031385168316031305128312031305165F
:10184C00080083120313A30100302102BC300319DA
:10185C002002031C342CA301A30A5C2C00302102AF
:10186C00623003192002031C3D2C0230592C00302D
:10187C0021022A3003192002031C462C0330592C58
:10188C0000302102143003192002031C4F2C0430A9
:10189C00592C003021020A3003192002031C582C49
:1018AC000530592C0630A2002208A3002308A20000
:1018BC002208F8001A308A159F220800831203139D
:1018CC00A001A1017508740403199D2CA201A20AA0
:1018DC00F51B7C2C01300310F40DF50DFF3E031DA0
:1018EC00712C0130F8007808A2076E2C013003101F
:1018FC00A00DA10DFF3E031D7D2C75087702031D65
:10190C00892C74087602031C922C7408F602750854
:10191C00031CF703F702201401300310F50CF40C30
:10192C00FF3E031D932C0130A202031D7C2C2108C9
:10193C00F501F5072008F401F407080003308312C1
:10194C0003132502E93003192402031CB12CE830DF
:10195C00A4000330A5000030250204300319240232
:10196C000318BC2C0430A4000030A5002408FF3E52
:10197C00F40025080318013EFF3EF500E830F600A0
:10198C000330F7008A1564248A1574088312031334
:10199C00A6002608A8002808A6002608F80019307A
:1019AC008A159F228A15831203132508A700240881
:1019BC00A6000310A70CA60C2608A0002708A1005F
:1019CC008A152724080083120313A70027088A11FD
:1019DC00A8268A157730F9007908F40083120313CE
:1019EC0027088A114D228A158312031327088A119E
:1019FC001E238A15003A0319262D83120313270878
:101A0C008A158F2700300800831203132608013A29
:101A1C00031D122DF701142DF701F70A27088A115F
:101A2C004E218A15F90083120313250884007908C6
:101A3C00831380000130A6020130F9007908A50754
:101A4C0083120313A608031D0A2D27088A158F2756
:101A5C000130080083120313B400F430AE002E08DA
:101A6C00B1006608B301B3076508B201B207FF30D5
:101A7C00A3003F30A4000030A5000130A6000430C4
:101A8C00AE002E08A70034088A15DA258A158312B1
:101A9C000313AF002F08B500350803197B2D003058
:101AAC000800FF30A5003F30A6003230AE002E08F3
:101ABC00A7000230AF002F08A80034088A111E2698
:101ACC008A1583120313B0003008B50035080319CA
:101ADC00712D003008003308AE0007300310AE0C37
:101AEC00FF3E031D742D2E18812D0130B1023108DB
:101AFC00FF3A031D572D0130080083120313A40075
:101B0C008A1568228A1518308A154C238A158A156D
:101B1C00D8228A158312031324088A154C238A159C
:101B2C008A15D8228A158A1568228A1519308A15C1
:101B3C004C238A158A15D8228A1583120313A50102
:101B4C002108FF3EA200FF3003180030A300230839
:101B5C00803A803C031DB42D220825020318CB2D9E
:101B6C0001308A15B2238A1583120313A2002008B0
:101B7C0084002208831380000130A2002208A007F1
:101B8C000130A2002208A507A62D00308A15B22329
:101B9C008A1583120313A2002008840022088313E1
:101BAC0080008A155022080083120313AD006108CF
:101BBC00AB006008AA005F08A9005E08A800240812
:101BCC00F8007808A8002308F8007808A90026086F
:101BDC00F8007808AA002508F8007808AB002D0852
:101BEC008A11A8268A157630F8007808F40083123A
:101BFC0003132D088A114D228A15831203132D0805
:101C0C008A111E238A15003A0319132E831203130B
:101C1C002D088A158F270130080083120313AC019D
:101C2C0027082C0203183D2E2C08283E8400831311
:101C3C000008F8007808F4002D088A114D228A1546
:101C4C00831203132D088A111E238A15003A0319D7
:101C5C00362E831203132D088A158F2701300800A6
:101C6C000130F800780883120313AC07162E2D08E8
:101C7C008A158F270030080083120313B200053039
:101C8C00A3003030A4004C30A5005530A600043021
:101C9C00F9007908A70032088A15DA258A1501306F
:101CAC00F4000030F5008A15BB228A158312031349
:101CBC002F08A401A4072E08A301A3070030A50038
:101CCC000030A6000430F9007908A70032088A1504
:101CDC00DA258A150130F4000030F5008A15BB2294
:101CEC008A15053083120313A3003030A4004C3046
:101CFC00A5005530A6000430F9007908A700320879
:101D0C008A15DA258A150130F4000030F5008A15A1
:101D1C00BB228A15831203132F08A401A4072E08D3
:101D2C00A301A3073108A601A6073008A501A50742
:101D3C000430F9007908A70032088A15DA258A15CB
:101D4C000130F4000030F5008A15BB220800F400C5
:101D5C000F2F8312031306138316031306128A150F
:101D6C008E218A158312031306128A158E218A1569
:101D7C008312031306178A158E218312031306137D
:101D8C0008008312031307118316031387108A1597
:101D9C008E218A158312031387108A158E218A15BA
:101DAC008312031307158A158E218312031307114F
:101DBC0008008312031387128316031307128A1564
:101DCC008E218A158312031307128A158E218A1508
:101DDC008312031387168A158E218312031387121D
:101DEC0008008312031385128316031305128A1538
:101DFC008E218A158312031305128A158E218A15DA
:101E0C008312031385168A158E21831203138512F0
:101E1C0008007408013A0319AF2E033A0319C72EB0
:101E2C00013A0319DF2E073A0319F72E1D2F08006C
:101E3C00F400802F83120313061383160313061268
:101E4C008A158E218A158312031306168A158E2184
:101E5C008A158312031306178A158E218312031316
:101E6C00061308008312031307118316031387103C
:101E7C008A158E218A158312031387148A158E21D5
:101E8C008A158312031307158A158E2183120313E7
:101E9C00071108008312031387128316031307120A
:101EAC008A158E218A158312031307168A158E2123
:101EBC008A158312031387168A158E218312031336
:101ECC00871208008312031385128316031305125D
:101EDC008A158E218A158312031305168A158E21F5
:101EEC008A158312031385168A158E218312031308
:101EFC00851208007408013A0319202F033A0319BC
:101F0C00382F013A0319502F073A0319682F8E2FD7
:101F1C000800F400F12F8316031306128312031327
:101F2C0006138A158E218A158312031306128A153D
:101F3C008E218A158312031306178A158E2183129C
:101F4C00031306160800831603138710831203135A
:101F5C0007118A158E218A158312031387108A158F
:101F6C008E218A158312031307158A158E2183126D
:101F7C000313871408008316031307128312031329
:101F8C0087128A158E218A158312031307128A155C
:101F9C008E218A158312031387168A158E218312BC
:101FAC000313071608008316031305128312031379
:101FBC0085128A158E218A158312031305128A1530
:101FCC008E218A158312031385168A158E2183128E
:101FDC000313051608007408013A0319912F033AEC
:101FEC000319A92F013A0319C12F073A0319D92F45
:041FFC00FF2F0800AB
:02400E00D4FBE1
:00000001FF
